S01700004763634170706C69636174696F6E312E737265635B
S11300000C9446000C9463000C9463000C946300FD
S11300100C9463000C9463000C9463000C946300D0
S11300200C9463000C9463000C9463000C946300C0
S11300300C9463000C9446010C9463000C946300CC
S11300400C9463000C9463000C9463000C946300A0
S11300500C9463000C9463000C9463000C94630090
S11300600C9463000C9463000C9463000C94630080
S11300700C9463000C9463000C946300000A1F1F2B
S11300800E040000001B0E151F0E000011241FBEDD
S1130090CFEFD0E1DEBFCDBF11E0A0E0B1E0E8EFEB
S11300A0F2E102C005900D92A232B107D9F721E026
S11300B0A2E2B1E001C01D92AC32B207E1F70E94A6
S11300C058020C947A090C940000169A00001698B1
S11300D00895CF93DF93D82F662311F0149A01C0AB
S11300E01498159881B18F6081B9C2B1C07F8D2FEA
S11300F082958F708C2B82B90E946500DF70DC2B97
S1130100D2B90E946500CF60C2B9DF91CF91089542
S1130110882311F0149A01C01498159A81B1807F34
S113012081B9169A000090B116980000169A000042
S113013020B12F70892F8295807F1698822B089585
S113014080E00E9488008823DCF300C000C080E0C7
S11301500E9488000895CF93C82F0E94A00060E0F9
S11301608C2F0E946900CF910895CF93C82F0E94CD
S1130170A00061E08C2F0E946900CF910895611165
S113018004C080580E94AB00089580540E94AB00C4
S1130190089581E00E94AB000895CF93C82F0E9478
S11301A0A000CA3049F4803410F080E001C080E43B
S11301B080580E94AB0004C061E08C2F0E9469004B
S11301C0CF910895CF93DF93EC012196FC018081B8
S11301D0882329F00E94CD0089918111FBCFDF9102
S11301E0CF910895CF93C82F81B18F6781B98FE9DB
S11301F09FE00197F1F700C00000119A109A0E9445
S1130200650081EE94E00197F1F700C000000E94C0
S1130210650095E19A95F1F700000E94650085E17B
S11302208A95F1F7000010980E94650095E19A956F
S1130230F1F7000088E20E94AB0088E00E94AB0066
S11302400E94C90086E00E94AB008C2F0E94AB0084
S1130250CF9108950E941D0667E070E00E94A905F1
S11302600196880F991F2091260130912701820F52
S1130270931F8F709078992324F40197806F9F6F58
S11302800196909327018093260108951F920F925F
S11302900FB60F9211242F933F934F935F936F9355
S11302A07F938F939F93AF93BF93EF93FF9380912B
S11302B0280190912901892B61F480912401909166
S11302C02501181619062CF40197909325018093A3
S11302D02401109229011092280180912201909109
S11302E02301019769F41092230110922201809155
S11302F00C0190910D01019790930D0180930C01D5
S11303000E942A0181E090E090930B0180930A01FE
S1130310FF91EF91BF91AF919F918F917F916F91D9
S11303205F914F913F912F910F900FBE0F901F90AF
S1130330189561E0809126010E94BF0080E00E9430
S1130340CD00089560E08FE00E94BF0081E00E942C
S1130350CD0008950F931F93CF93DF93CDB7DEB7EE
S11303602A970FB6F894DEBF0FBECDBF9F938F932D
S11303708EE091E09F938F938E010F5F1F4F1F9329
S11303800F930E942D060F900F900F900F900F90D7
S11303900F90C8012A960FB6F894DEBF0FBECDBFEA
S11303A0DF91CF911F910F91089560E080E00E944A
S11303B0BF0081E191E00E94E20060E087E00E94DA
S11303C0BF0080912401909125010E94AA010E94FE
S11303D0E200089560E08EE00E94BF0080910C016D
S11303E090910D010E94AA010E94E2000E94A201C4
S11303F008950F931F93CF93DF9380E40E94AB0083
S1130400C4E8D0E00CE810E0FE0184910E94B5003D
S113041021960C171D07C1F7CCE7D0E004E810E0E3
S1130420FE0184910E94B50021960C171D07C1F7A7
S1130430DF91CF911F910F910895CF92DF92EF92A8
S1130440FF9220E030E040E85AE3609104017091AB
S1130450050180910601909107010E943C0520E06E
S113046030E040E05EE30E943C056B017C0160915A
S1130470080170910901072E000C880B990B0E944A
S1130480B00420E030E04AE754E40E9406049B01F3
S1130490AC01C701B6010E943C050E947804709328
S11304A02B0160932A01FF90EF90DF90CF90089585
S11304B0CF93DF93F894CFEFC2B978945098589AB9
S11304C0C4B917B8409A0E941D0280912A019091E4
S11304D02B01909389008093880080E480938000AE
S11304E08DE08093810082E080936F00C5B98CE039
S11304F00E94F2000E94F9010E942A01C1E0D0E0AA
S11305000E94C9000E94D5010E94EA01809128013D
S113051090912901892B11F40E94990187EA91E6AF
S11305200197F1F700C0000086B185B980910A01F6
S113053090910B01019709F022C130991FC080915D
S11305402601909127010E97C9F48091280190917A
S11305502901892B09F01CC1D0932901C0932801DA
S11305608091240190912501019690932501809317
S1130570240110920B0110920A0101C131991FC08C
S113058080912601909127010C97C9F4809128014C
S113059090912901892B09F0FEC0D0932901C093C1
S11305A028018091240190912501019690932501C1
S11305B08093240110920B0110920A01E0C0329939
S11305C01FC080912601909127010A97C9F4809158
S11305D0280190912901892B09F0E0C0D0932901C9
S11305E0C093280180912401909125010196909354
S11305F025018093240110920B0110920A01BFC0BF
S113060033991FC080912601909127010897C9F45E
S11306108091280190912901892B09F0C2C0D093BF
S11306202901C0932801809124019091250101960C
S1130630909325018093240110920B0110920A01DA
S11306409EC034991FC0809126019091270106977E
S1130650C9F48091280190912901892B09F0A4C043
S1130660D0932901C0932801809124019091250100
S11306700196909325018093240110920B0110920E
S11306800A017DC035991BC08091260190912701F4
S11306900497A9F48091280190912901892B09F0EC
S11306A086C0D0932901C0932801809124019091A0
S11306B025010196909325018093240160C0369909
S11306C01FC080912601909127010297C9F480915F
S11306D0280190912901892B09F06CC0D09329013C
S11306E0C093280180912401909125010196909353
S11306F025018093240110920B0110920A013FC03E
S113070037991FC08091260190912701892BC9F444
S11307108091280190912901892B09F054C0D0932C
S11307202901C0932801809124019091250101960B
S1130730909325018093240110920B0110920A01D9
S11307401EC0309B0EC0319B0CC0329B0AC0339B31
S113075008C0349B06C0359B04C0369B02C0379941
S11307600EC010920B0110920A0180912801909101
S11307702901892B21F4D0932301C0932201809174
S11307800C0190910D01181619060CF4B9CE2BC06A
S113079086B186B135CF86B186B153CF86B186B1E5
S11307A071CF86B186B18BCF86B186B1A9CF86B120
S11307B086B1C7CF86B13099C6CF08C010920B015D
S11307C010920A01DCCF30990BC0F8CF10920B01C4
S11307D010920A01D4CF10920B0110920A01CFCFCC
S11307E03199B3CFF8CF0E94C9000E94D5010E946D
S11307F0EA0161E083E00E94BF0088E191E00E9489
S1130800E20080E090E0DF91CF9108950E941A0405
S11308100C9402050E94FB0458F00E94F40440F07A
S113082029F45F3F29F00C94EB0451110C94360524
S11308300C94F1040E94130568F39923B1F3552332
S113084091F3951B550BBB27AA27621773078407DF
S113085038F09F5F5F4F220F331F441FAA1FA9F375
S113086035D00E2E3AF0E0E832D091505040E69563
S1130870001CCAF72BD0FE2F29D0660F771F881FC4
S1130880BB1F261737074807AB07B0E809F0BB0BB7
S1130890802DBF01FF2793585F4F3AF09E3F5105CB
S11308A078F00C94EB040C9436055F3FE4F3983E27
S11308B0D4F3869577956795B795F7959F5FC9F7B4
S11308C0880F911D9695879597F90895E1E0660F35
S11308D0771F881FBB1F621773078407BA0720F0AE
S11308E0621B730B840BBA0BEE1F88F7E095089517
S11308F00E947F046894B1110C94360508950E94F7
S11309001B0588F09F5798F0B92F9927B751B0F07D
S1130910E1F0660F771F881F991F1AF0BA95C9F77F
S113092014C0B13091F00E943505B1E008950C94E3
S11309303505672F782F8827B85F39F0B93FCCF396
S1130940869577956795B395D9F73EF490958095FC
S1130950709561957F4F8F4F9F4F0895E89409C01C
S113096097FB3EF490958095709561957F4F8F4FDE
S11309709F4F9923A9F0F92F96E9BB279395F695F4
S1130980879577956795B795F111F8CFFAF4BB0F72
S113099011F460FF1BC06F5F7F4F8F4F9F4F16C0D6
S11309A0882311F096E911C0772321F09EE8872F60
S11309B0762F05C0662371F096E8862F70E060E01C
S11309C02AF09A95660F771F881FDAF7880F969595
S11309D0879597F9089597F99F6780E870E060E03C
S11309E008959FEF80EC089500240A9416161706C4
S11309F018060906089500240A941216130614060C
S1130A0005060895092E0394000C11F4882352F06E
S1130A10BB0F40F4BF2B11F460FF04C06F5F7F4F26
S1130A208F4F9F4F089557FD9058440F551F59F00D
S1130A305F3F71F04795880F97FB991F61F09F3FC7
S1130A4079F087950895121613061406551FF2CFF0
S1130A504695F1DF08C0161617061806991FF1CF40
S1130A6086957105610508940895E894BB27662767
S1130A707727CB0197F908950E944F050C9402053E
S1130A800E94F40438F00E94FB0420F0952311F036
S1130A900C94EB040C94F10411240C9436050E947C
S1130AA0130570F3959FC1F3950F50E0551F629F96
S1130AB0F001729FBB27F00DB11D639FAA27F00DB3
S1130AC0B11DAA1F649F6627B00DA11D661F829FDA
S1130AD02227B00DA11D621F739FB00DA11D621FBF
S1130AE0839FA00D611D221F749F3327A00D611DDC
S1130AF0231F849F600D211D822F762F6A2F1124BE
S1130B009F5750409AF0F1F088234AF0EE0FFF1FF0
S1130B10BB1F661F771F881F91505040A9F79E3F47
S1130B20510580F00C94EB040C9436055F3FE4F31C
S1130B30983ED4F3869577956795B795F795E7959D
S1130B409F5FC1F7FE2B880F911D9695879597F9A6
S1130B50089597FB072E16F4009407D077FD09D06B
S1130B600E94BD0507FC05D03EF4909581959F4FEA
S1130B700895709561957F4F0895AA1BBB1B51E1A1
S1130B8007C0AA1FBB1FA617B70710F0A61BB70BF9
S1130B90881F991F5A95A9F780959095BC01CD019E
S1130BA008958F929F92AF92BF92CF92DF92EF926D
S1130BB0FF92CF93DF93EC01688179818A819B81D5
S1130BC0611571058105910521F464E279ED8BE5E8
S1130BD097E02DE133EF41E050E00E94E008490145
S1130BE05A019B01AC01A7EAB1E40E94FF086B0122
S1130BF07C01ACEEB4EFA50194010E940D09DC0167
S1130C00CB018C0D9D1DAE1DBF1DB7FF03C0019709
S1130C10A109B04888839983AA83BB839F77DF9116
S1130C20CF91FF90EF90DF90CF90BF90AF909F90C7
S1130C308F9008950E94D105089580E091E00E946C
S1130C40D1050895A0E0B0E08093000190930101E4
S1130C50A0930201B09303010895AEE0B0E0E3E392
S1130C60F6E00C9420090D891E8986E08C831A8392
S1130C7009838FEF9FE79E838D83AE01475E5F4FAD
S1130C806F89788DCE0101960E944F06EF81F88519
S1130C90E00FF11F10822E96E4E00C943C09ABE0C7
S1130CA0B0E0E5E5F6E00C9412096C017B018A01E1
S1130CB0FC0117821682838181FFCCC1CE0101968B
S1130CC03C01F6019381F70193FD859193FF819196
S1130CD07F01882309F4BAC1853239F493FD8591E3
S1130CE093FF81917F01853229F4B60190E00E943F
S1130CF04608E7CF912C212C312CFFE1F315D8F0D5
S1130D008B3279F038F4803279F08332A1F4232DD8
S1130D1020611DC08D3261F0803369F4232D216080
S1130D2016C0832D8260382EE32DE4603E2E2AC047
S1130D30F32DF8601DC037FC2DC020ED280F2A309C
S1130D4040F08E32B9F436FC81C1232D2064322E5A
S1130D5019C036FE06C08AE0989E200D1124922EFA
S1130D6011C0EAE02E9E200D1124222EF32DF062F4
S1130D703F2E08C08C3621F4832D8068382E02C0A3
S1130D80883641F4F70193FD859193FF81917F01AA
S1130D908111B3CF982F9F7D9554933028F40C5F25
S1130DA01F4F9FE399830DC0833631F0833771F071
S1130DB0833509F059C021C0F801808189830E5F11
S1130DC01F4F88248394912C530113C02801F2E00F
S1130DD04F0E511CF801A080B18036FE03C0692D6E
S1130DE070E002C06FEF7FEFC5010E943B084C0129
S1130DF08201F32DFF773F2E16C0280122E0420E18
S1130E00511CF801A080B18036FE03C0692D70E04A
S1130E1002C06FEF7FEFC5010E9430084C01F32D33
S1130E20F0683F2E820133FC1BC0822D90E08816AF
S1130E309906B0F4B60180E290E00E9446082A9434
S1130E40F4CFF50137FC859137FE81915F01B6013E
S1130E5090E00E94460821102A9421E0821A910809
S1130E608114910471F7E8C0843611F0893641F594
S1130E70F80137FE07C060817181828193810C5F24
S1130E801F4F08C060817181072E000C880B990BDD
S1130E900E5F1F4FF32DFF763F2E97FF09C09095ED
S1130EA08095709561957F4F8F4F9F4FF0683F2ECF
S1130EB02AE030E0A3010E948208882E861845C0EB
S1130EC0853731F4232D2F7EB22E2AE030E025C061
S1130ED0932D997FB92E8F36C1F018F4883579F0A7
S1130EE0B5C0803719F0883721F0B0C0E92FE06130
S1130EF0BE2EB4FE0DC0FB2DF460BF2E09C034FE1F
S1130F000AC0292F2660B22E06C028E030E005C0B2
S1130F1020E130E002C020E132E0F801B7FE07C072
S1130F2060817181828193810C5F1F4F06C0608153
S1130F30718180E090E00E5F1F4FA3010E94820840
S1130F40882E8618FB2DFF773F2E36FE0DC0232DED
S1130F502E7FA22E891458F434FE0BC032FC09C033
S1130F60832D8E7EA82E05C0B82CA32C03C0B82CCC
S1130F7001C0B92CA4FE0FC0FE01E80DF11D808153
S1130F80803321F49A2D997EA92E09C0A2FE06C0B1
S1130F90B394B39404C08A2D867809F0B394A3FC67
S1130FA011C0A0FE06C0B21488F4280C922C9B1821
S1130FB00EC0B21460F4B60180E290E00E944608CC
S1130FC0B394F7CFB21418F42B1802C0982C212C28
S1130FD0A4FE10C0B60180E390E00E944608A2FE81
S1130FE017C0A1FC03C088E790E002C088E590E048
S1130FF0B6010CC08A2D867859F0A1FE02C08BE29E
S113100001C080E2A7FC8DE2B60190E00E94460890
S1131010891438F4B60180E390E00E9446089A945B
S1131020F7CF8A94F301E80DF11D8081B60190E0B9
S11310300E9446088110F5CF222009F442CEB60161
S113104080E290E00E9446082A94F6CFF601868159
S1131050978102C08FEF9FEF2B96E2E10C942E094B
S1131060FC010590615070400110D8F7809590956F
S11310708E0F9F1F0895FC01615070400190011074
S1131080D8F7809590958E0F9F1F08950F931F9307
S1131090CF93DF93FB01238121FD03C08FEF9FEFEB
S11310A02CC022FF16C04681578124813581421706
S11310B0530744F4A081B1819D012F5F3F4F3183D9
S11310C020838C93268137812F5F3F4F378326837C
S11310D014C08B01EC01FB010084F185E02D09951E
S11310E0892BE1F6D80116968D919C91179701965C
S11310F017969C938E931697CE01DF91CF911F91F3
S11311000F910895FA01AA27283051F1203181F175
S1131110E8946F936E7F6E5F7F4F8F4F9F4FAF4FFB
S1131120B1E03ED0B4E03CD0670F781F891F9A1F0E
S1131130A11D680F791F8A1F911DA11D6A0F711DC2
S1131140811D911DA11D20D009F468943F912AE0CE
S1131150269F11243019305D3193DEF6CF010895B6
S1131160462F4770405D4193B3E00FD0C9F7F6CFE7
S1131170462F4F70405D4A3318F0495D31FD4052AF
S1131180419302D0A9F7EACFB4E0A6959795879545
S113119077956795BA95C9F7009761057105089524
S11311A09B01AC010A2E06945795479537952795D0
S11311B0BA95C9F7620F731F841F951FA01D089568
S11311C0052E97FB1EF400940E94F70857FD07D0E4
S11311D00E94490907FC03D04EF40C94F70850957B
S11311E04095309521953F4F4F4F5F4F089590950F
S11311F08095709561957F4F8F4F9F4F08950E9402
S11312006B09A59F900DB49F900DA49F800D911D17
S113121011240895B7FF0C94FF080E94FF08821B55
S1131220930B08952F923F924F925F926F927F9209
S11312308F929F92AF92BF92CF92DF92EF92FF92E2
S11312400F931F93CF93DF93CDB7DEB7CA1BDB0B8E
S11312500FB6F894DEBF0FBECDBF09942A88398833
S113126048885F846E847D848C849B84AA84B9843A
S1131270C884DF80EE80FD800C811B81AA81B98146
S1131280CE0FD11D0FB6F894DEBF0FBECDBFED015A
S11312900895A1E21A2EAA1BBB1BFD010DC0AA1FB3
S11312A0BB1FEE1FFF1FA217B307E407F50720F0CB
S11312B0A21BB30BE40BF50B661F771F881F991F46
S11312C01A9469F760957095809590959B01AC018F
S11312D0BD01CF010895A29FB001B39FC001A39F98
S11312E0700D811D1124911DB29F700D811D11245B
S10B12F0911D0895F894FFCF4D
S11312F8010000000024F44AD0070100030025641B
S11313080053636F72653A0047414D45204F564577
S105131852007D
S9030000FC
