:100000000C9468000C947D000C947D000C947D0091
:100010000C947D000C947D000C947D000C947D006C
:100020000C947D000C947D000C947D000C947D005C
:100030000C947D000C947D000C947D000C947D004C
:100040000C947D000C947D000C947D000C947D003C
:100050000C947D000C947D000C947D000C947D002C
:100060000C947D000C947D000C947D000C947D001C
:100070000C947D000C947D000C947D004C696E65A1
:100080002032206C6F6E676572207468616E20315B
:10009000342063686172616374657273004C696EC9
:1000A000652031206C6F6E676572207468616E2008
:1000B000313420636861726163746572730A00078A
:1000C000081314141308070010080808081000008B
:1000D00011241FBECFEFD0E1DEBFCDBF11E0A0E005
:1000E000B1E0E0E2F4E002C005900D92AE32B1075B
:1000F000D9F70E9464010C940E020C940000169A29
:10010000000016980895CF93DF93D82F662311F03F
:10011000149A01C01498159881B18F6081B9C2B149
:10012000C07F8D2F82958F708C2B82B90E947F00AB
:10013000DF70DC2BD2B90E947F00CF60C2B9DF91A3
:10014000CF910895882311F0149A01C01498159A3C
:1001500081B1807F81B9169A000090B11698000095
:10016000169A000020B12F70892F8295807F1698F3
:10017000822B089580E00E94A2008823DCF300C057
:1001800000C080E00E94A2000895CF93C82F0E9473
:10019000BA0060E08C2F0E948300CF910895CF9326
:1001A000C82F0E94BA0061E08C2F0E948300CF917B
:1001B0000895611104C080580E94C50008958054BC
:1001C0000E94C500089581E00E94C5000895CF9364
:1001D000C82F0E94BA00CA3049F4803410F080E081
:1001E00001C080E480580E94C50004C061E08C2FEB
:1001F0000E948300CF910895CF93DF93EC01219665
:10020000FC018081882329F00E94E70089918111F7
:10021000FBCFDF91CF910895CF93DF93EC0121962F
:10022000FC018491882339F00E94E700FE0184914B
:1002300021968111F9CFDF91CF910895CF93C82FE7
:1002400081B18F6781B98FE99FE00197F1F700C015
:100250000000119A109A0E947F0081EE94E00197AD
:10026000F1F700C000000E947F0095E19A95F1F738
:1002700000000E947F0085E18A95F1F70000109848
:100280000E947F0095E19A95F1F7000088E20E94B4
:10029000C50088E00E94C5000E94E30086E00E943D
:1002A000C5008C2F0E94C500CF91089599B1E1EE51
:1002B000F4E03197F1F700C0000089B1892382FD95
:1002C000F5CF4A9BFECF0895CF93DF93CDB7DEB72E
:1002D00027970FB6F894DEBF0FBECDBF52985A9A3B
:1002E0008CE00E941E010F2EFFECEF2EF0E0FF2E9F
:1002F000F02D0E94E30060E080E00E94D90080E0E1
:1003000091E00E94FC0061E082E00E94D90080E15F
:1003100091E00E94FC000E9456018EE00E94C50000
:100320008CE191E00E94FC000E9456010E94E300D3
:100330008DE990E00E940C018CE790E00E940C0196
:1003400088E10E94C5000E9456018CE00E94C50011
:100350000E94E3004AE0BE016F5F7F4F86E890E0B5
:100360000E94D901CE0101960E94FC000E94560114
:100370000E94E30082E291E00E94FC0080E40E947F
:10038000C5000FEB10E0F80184910E94CF000F5FD1
:100390001F4F0E151F05B9F761E080E00E94D900DC
:1003A00080E00E94E70081E00E94E7000E94560181
:1003B000A0CFBB274A3031F4992322F4BDE29095B7
:1003C00081959F4F0C94E501BB27FB015527AA2778
:1003D000880F991FAA1FA41710F0A41B83955051D2
:1003E000B9F7A05DAA3308F0A95DA193009779F74A
:1003F000B111B1931192CB010C94FE01DC01FC010F
:10040000672F71917723E1F7329704C07C916D9348
:1004100070836291AE17BF07C8F30895F894FFCFB9
:100420004869204C756B61732C205068696C0A0018
:1004300043756F6E672C204C6F6E67004375724F6B
:0E0440006E00436F707972696768743A20002D
:00000001FF
