:100000000C9446000C942A010C9463000C94630039
:100010000C9463000C9463000C9463000C946300D4
:100020000C9463000C9463000C9463000C946300C4
:100030000C9463000C9463000C9463000C944501D1
:100040000C9463000C9463000C9463000C946300A4
:100050000C9463000C9463000C9463000C94630094
:100060000C9463000C9463000C9463000C94630084
:100070000C9463000C9463000C946300000A1F1F2F
:100080000E040000001B0E151F0E000011241FBEE1
:10009000CFEFD0E1DEBFCDBF11E0A0E0B1E0EAEFED
:1000A000FEE002C005900D92AC31B107D9F721E016
:1000B000ACE1B1E001C01D92A432B207E1F70E94A9
:1000C00022020C947B070C940000169A00001698EC
:1000D0000895CF93DF93D82F662311F0149A01C0AF
:1000E0001498159881B18F6081B9C2B1C07F8D2FEE
:1000F00082958F708C2B82B90E946500DF70DC2B9B
:10010000D2B90E946500CF60C2B9DF91CF91089546
:10011000882311F0149A01C01498159A81B1807F38
:1001200081B9169A000090B116980000169A000046
:1001300020B12F70892F8295807F1698822B089589
:1001400080E00E9488008823DCF300C000C080E0CB
:100150000E9488000895CF93C82F0E94A00060E0FD
:100160008C2F0E946900CF910895CF93C82F0E94D1
:10017000A00061E08C2F0E946900CF910895611169
:1001800004C080580E94AB00089580540E94AB00C8
:10019000089581E00E94AB000895CF93C82F0E947C
:1001A000A000CA3049F4803410F080E001C080E43F
:1001B00080580E94AB0004C061E08C2F0E9469004F
:1001C000CF910895CF93DF93EC012196FC018081BC
:1001D000882329F00E94CD0089918111FBCFDF9106
:1001E000CF910895CF93C82F81B18F6781B98FE9DF
:1001F0009FE00197F1F700C00000119A109A0E9449
:10020000650081EE94E00197F1F700C000000E94C4
:10021000650095E19A95F1F700000E94650085E17F
:100220008A95F1F7000010980E94650095E19A9573
:10023000F1F7000088E20E94AB0088E00E94AB006A
:100240000E94C90086E00E94AB008C2F0E94AB0088
:10025000CF9108951F920F920FB60F9211240F9015
:100260000FBE0F901F9018950E941E048770907803
:10027000992324F40197886F9F6F0196880F991F27
:10028000909323018093220108951F920F920FB63D
:100290000F9211242F933F934F935F936F937F930C
:1002A0008F939F93AF93BF93EF93FF938CE390EF64
:1002B000909385008093840080912001909121018A
:1002C000892B61F480911E0190911F011816190667
:1002D0002CF4019790931F0180931E01109221012D
:1002E0001092200180911C0190911D01019769F4E9
:1002F00010921D0110921C0180910601909107013E
:10030000019790930701809306010E94340181E0D8
:1003100090E09093050180930401FF91EF91BF91CC
:10032000AF919F918F917F916F915F914F913F918D
:100330002F910F900FBE0F901F90189561E0809144
:1003400022010E94BF0080E00E94CD00089560E07D
:100350008FE00E94BF0081E00E94CD0008950F93BE
:100360001F93CF93DF93CDB7DEB72A970FB6F894DC
:10037000DEBF0FBECDBF9F938F9388E091E09F9328
:100380008F938E010F5F1F4F1F930F930E942E04B8
:100390000F900F900F900F900F900F90C8012A961A
:1003A0000FB6F894DEBF0FBECDBFDF91CF911F9186
:1003B0000F91089560E080E00E94BF008BE091E023
:1003C0000E94E20060E087E00E94BF0080911E0171
:1003D00090911F010E94AF010E94E200089560E029
:1003E0008EE00E94BF0080910601909107010E945B
:1003F000AF010E94E2000E94A70108950F931F938E
:10040000CF93DF9380E40E94AB00C4E8D0E00CE817
:1004100010E0FE0184910E94B50021960C171D0783
:10042000C1F7CCE7D0E004E810E0FE0184910E941F
:10043000B50021960C171D07C1F7DF91CF911F91D1
:100440000F910895CF93DF93F8948FEF82B978944A
:100450005098589A84B991E09DBB17B8409A109271
:100460008000E1E8F0E010822CE330EF309385006B
:1004700020938400908194609083EFE6F0E0908177
:100480009160908385B98CE00E94F2000E94FE0189
:100490000E943401C1E0D0E00E94C9000E94DA014C
:1004A0000E94EF018091200190912101892B11F48C
:1004B0000E949E0187EA91E60197F1F700C00000D3
:1004C00086B185B98091040190910501019709F0E9
:1004D00022C130991FC08091220190912301892B64
:1004E000C9F48091200190912101892B09F01CC150
:1004F000D0932101C093200180911E0190911F0192
:10050000019690931F0180931E0110920501109295
:10051000040101C131991FC08091220190912301F2
:100520000297C9F48091200190912101892B09F053
:10053000FEC0D0932101C093200180911E019091B3
:100540001F01019690931F0180931E0110920501D7
:1005500010920401E0C032991FC080912201909155
:1005600023010497C9F48091200190912101892BE6
:1005700009F0E0C0D0932101C093200180911E01B9
:1005800090911F01019690931F0180931E0110927C
:10059000050110920401BFC033991FC08091220150
:1005A000909123010697C9F4809120019091210137
:1005B000892B09F0C2C0D0932101C0932001809102
:1005C0001E0190911F01019690931F0180931E01BF
:1005D00010920501109204019EC034991FC08091B1
:1005E0002201909123010897C9F4809120019091F4
:1005F0002101892B09F0A4C0D0932101C0932001CF
:1006000080911E0190911F01019690931F0180938C
:100610001E0110920501109204017DC035991BC086
:1006200080912201909123010A97A9F480912001E1
:1006300090912101892B09F086C0D0932101C093AC
:10064000200180911E0190911F01019690931F013E
:1006500080931E0160C036991FC080912201909145
:1006600023010C97C9F48091200190912101892BDD
:1006700009F06CC0D0932101C093200180911E012C
:1006800090911F01019690931F0180931E0110927B
:100690000501109204013FC037991FC080912201CB
:1006A000909123010E97C9F480912001909121012E
:1006B000892B09F054C0D0932101C093200180916F
:1006C0001E0190911F01019690931F0180931E01BE
:1006D00010920501109204011EC0309B0EC0319B88
:1006E0000CC0329B0AC0339B08C0349B06C0359BAC
:1006F00004C0369B02C037990EC0109205011092BB
:1007000004018091200190912101892B21F4D09343
:100710001D01C0931C0180910601909107011816DC
:1007200019060CF4B9CE2BC086B186B135CF86B18F
:1007300086B153CF86B186B171CF86B186B18BCFEA
:1007400086B186B1A9CF86B186B1C7CF86B1309BBD
:1007500009C0C5CF1092050110920401DCCF309979
:100760000BC0F8CF1092050110920401D4CF109263
:10077000050110920401CFCF3199B3CFF8CF0E9479
:10078000C9000E94DA010E94EF0161E083E00E944B
:10079000BF0082E191E00E94E20080E090E0DF9102
:1007A000CF9108958F929F92AF92BF92CF92DF9296
:1007B000EF92FF92CF93DF93EC01688179818A8178
:1007C0009B81611571058105910521F464E279ED44
:1007D0008BE597E02DE133EF41E050E00E94E10628
:1007E00049015A019B01AC01A7EAB1E40E9400074C
:1007F0006B017C01ACEEB4EFA50194010E940E07E1
:10080000DC01CB018C0D9D1DAE1DBF1DB7FF03C0CC
:100810000197A109B04888839983AA83BB839F77F6
:10082000DF91CF91FF90EF90DF90CF90BF90AF908E
:100830009F908F9008950E94D203089580E091E0E8
:100840000E94D2030895A0E0B0E08093000190934D
:100850000101A0930201B09303010895AEE0B0E05E
:10086000E4E3F4E00C9421070D891E8986E08C8373
:100870001A8309838FEF9FE79E838D83AE01475EC6
:100880005F4F6F89788DCE0101960E945004EF81F1
:10089000F885E00FF11F10822E96E4E00C943D07DE
:1008A000ABE0B0E0E6E5F4E00C9413076C017B01EB
:1008B0008A01FC0117821682838181FFCCC1CE019F
:1008C00001963C01F6019381F70193FD859193FF19
:1008D00081917F01882309F4BAC1853239F493FDEF
:1008E000859193FF81917F01853229F4B60190E0D3
:1008F0000E944706E7CF912C212C312CFFE1F31504
:10090000D8F08B3279F038F4803279F08332A1F468
:10091000232D20611DC08D3261F0803369F4232DB9
:10092000216016C0832D8260382EE32DE4603E2EB8
:100930002AC0F32DF8601DC037FC2DC020ED280F14
:100940002A3040F08E32B9F436FC81C1232D206468
:10095000322E19C036FE06C08AE0989E200D112462
:10096000922E11C0EAE02E9E200D1124222EF32D8E
:10097000F0623F2E08C08C3621F4832D8068382E1B
:1009800002C0883641F4F70193FD859193FF819170
:100990007F018111B3CF982F9F7D9554933028F418
:1009A0000C5F1F4F9FE399830DC0833631F083376F
:1009B00071F0833509F059C021C0F8018081898325
:1009C0000E5F1F4F88248394912C530113C028017C
:1009D000F2E04F0E511CF801A080B18036FE03C03A
:1009E000692D70E002C06FEF7FEFC5010E943C06E9
:1009F0004C018201F32DFF773F2E16C0280122E023
:100A0000420E511CF801A080B18036FE03C0692D52
:100A100070E002C06FEF7FEFC5010E9431064C010C
:100A2000F32DF0683F2E820133FC1BC0822D90E035
:100A300088169906B0F4B60180E290E00E9447065D
:100A40002A94F4CFF50137FC859137FE81915F013F
:100A5000B60190E00E94470621102A9421E0821AF4
:100A600091088114910471F7E8C0843611F0893639
:100A700041F5F80137FE07C0608171818281938161
:100A80000C5F1F4F08C060817181072E000C880B1E
:100A9000990B0E5F1F4FF32DFF763F2E97FF09C076
:100AA00090958095709561957F4F8F4F9F4FF0681F
:100AB0003F2E2AE030E0A3010E948306882E86188C
:100AC00045C0853731F4232D2F7EB22E2AE030E049
:100AD00025C0932D997FB92E8F36C1F018F4883533
:100AE00079F0B5C0803719F0883721F0B0C0E92F10
:100AF000E061BE2EB4FE0DC0FB2DF460BF2E09C018
:100B000034FE0AC0292F2660B22E06C028E030E04D
:100B100005C020E130E002C020E132E0F801B7FE7C
:100B200007C060817181828193810C5F1F4F06C075
:100B30006081718180E090E00E5F1F4FA3010E94F1
:100B40008306882E8618FB2DFF773F2E36FE0DC0BC
:100B5000232D2E7FA22E891458F434FE0BC032FCB4
:100B600009C0832D8E7EA82E05C0B82CA32C03C0EF
:100B7000B82C01C0B92CA4FE0FC0FE01E80DF11D78
:100B80008081803321F49A2D997EA92E09C0A2FE7E
:100B900006C0B394B39404C08A2D867809F0B39448
:100BA000A3FC11C0A0FE06C0B21488F4280C922C3D
:100BB0009B180EC0B21460F4B60180E290E00E946F
:100BC0004706B394F7CFB21418F42B1802C0982C30
:100BD000212CA4FE10C0B60180E390E00E944706DD
:100BE000A2FE17C0A1FC03C088E790E002C088E520
:100BF00090E0B6010CC08A2D867859F0A1FE02C0A3
:100C00008BE201C080E2A7FC8DE2B60190E00E9479
:100C10004706891438F4B60180E390E00E94470645
:100C20009A94F7CF8A94F301E80DF11D8081B60103
:100C300090E00E9447068110F5CF222009F442CEB1
:100C4000B60180E290E00E9447062A94F6CFF601B2
:100C50008681978102C08FEF9FEF2B96E2E10C9483
:100C60002F07FC010590615070400110D8F7809566
:100C700090958E0F9F1F0895FC0161507040019068
:100C80000110D8F7809590958E0F9F1F08950F93B0
:100C90001F93CF93DF93FB01238121FD03C08FEFCF
:100CA0009FEF2CC022FF16C04681578124813581D9
:100CB0004217530744F4A081B1819D012F5F3F4F3C
:100CC000318320838C93268137812F5F3F4F378379
:100CD000268314C08B01EC01FB010084F185E02D1B
:100CE0000995892BE1F6D80116968D919C9117975D
:100CF000019617969C938E931697CE01DF91CF9114
:100D00001F910F910895FA01AA27283051F120313F
:100D100081F1E8946F936E7F6E5F7F4F8F4F9F4F8F
:100D2000AF4FB1E03ED0B4E03CD0670F781F891FD1
:100D30009A1FA11D680F791F8A1F911DA11D6A0F9F
:100D4000711D811D911DA11D20D009F468943F9152
:100D50002AE0269F11243019305D3193DEF6CF0151
:100D60000895462F4770405D4193B3E00FD0C9F717
:100D7000F6CF462F4F70405D4A3318F0495D31FD84
:100D80004052419302D0A9F7EACFB4E0A6959795D7
:100D9000879577956795BA95C9F7009761057105AD
:100DA00008959B01AC010A2E0694579547953795F7
:100DB0002795BA95C9F7620F731F841F951FA01D51
:100DC0000895052E97FB1EF400940E94F80657FD27
:100DD00007D00E944A0707FC03D04EF40C94F80693
:100DE00050954095309521953F4F4F4F5F4F089557
:100DF00090958095709561957F4F8F4F9F4F089587
:100E00000E946C07A59F900DB49F900DA49F800D2C
:100E1000911D11240895B7FF0C9400070E9400074C
:100E2000821B930B08952F923F924F925F926F9285
:100E30007F928F929F92AF92BF92CF92DF92EF926A
:100E4000FF920F931F93CF93DF93CDB7DEB7CA1BEB
:100E5000DB0B0FB6F894DEBF0FBECDBF09942A8816
:100E6000398848885F846E847D848C849B84AA84BE
:100E7000B984C884DF80EE80FD800C811B81AA814B
:100E8000B981CE0FD11D0FB6F894DEBF0FBECDBF16
:100E9000ED010895A1E21A2EAA1BBB1BFD010DC096
:100EA000AA1FBB1FEE1FFF1FA217B307E407F5071A
:100EB00020F0A21BB30BE40BF50B661F771F881FF6
:100EC000991F1A9469F760957095809590959B018C
:100ED000AC01BD01CF010895A29FB001B39FC00135
:100EE000A39F700D811D1124911DB29F700D811D56
:0A0EF0001124911D0895F894FFCF1E
:100EFA00010000000100030025640053636F72655E
:0C0F0A003A0047414D45204F564552002B
:00000001FF
